{
  "_format": "hh-sol-artifact-1",
  "contractName": "MusicRoyalty",
  "sourceName": "contracts/MusicRoyalty.sol",
  "abi": [
    {
      "anonymous": false,
      "inputs": [
        {
          "indexed": true,
          "internalType": "uint256",
          "name": "songId",
          "type": "uint256"
        },
        {
          "indexed": true,
          "internalType": "address",
          "name": "collaborator",
          "type": "address"
        },
        {
          "indexed": false,
          "internalType": "uint256",
          "name": "amount",
          "type": "uint256"
        }
      ],
      "name": "RoyaltyClaimed",
      "type": "event"
    },
    {
      "anonymous": false,
      "inputs": [
        {
          "indexed": true,
          "internalType": "uint256",
          "name": "songId",
          "type": "uint256"
        },
        {
          "indexed": true,
          "internalType": "address",
          "name": "listener",
          "type": "address"
        },
        {
          "indexed": false,
          "internalType": "uint256",
          "name": "amount",
          "type": "uint256"
        }
      ],
      "name": "SongPlayed",
      "type": "event"
    },
    {
      "anonymous": false,
      "inputs": [
        {
          "indexed": true,
          "internalType": "uint256",
          "name": "songId",
          "type": "uint256"
        },
        {
          "indexed": false,
          "internalType": "string",
          "name": "title",
          "type": "string"
        },
        {
          "indexed": true,
          "internalType": "address",
          "name": "owner",
          "type": "address"
        }
      ],
      "name": "SongRegistered",
      "type": "event"
    },
    {
      "inputs": [
        {
          "internalType": "uint256",
          "name": "_songId",
          "type": "uint256"
        }
      ],
      "name": "claimRoyalty",
      "outputs": [],
      "stateMutability": "nonpayable",
      "type": "function"
    },
    {
      "inputs": [],
      "name": "getAllSongs",
      "outputs": [
        {
          "components": [
            {
              "internalType": "uint256",
              "name": "id",
              "type": "uint256"
            },
            {
              "internalType": "string",
              "name": "title",
              "type": "string"
            },
            {
              "internalType": "string",
              "name": "artist",
              "type": "string"
            },
            {
              "internalType": "string",
              "name": "genre",
              "type": "string"
            },
            {
              "internalType": "address[]",
              "name": "collaborators",
              "type": "address[]"
            },
            {
              "internalType": "uint256[]",
              "name": "shares",
              "type": "uint256[]"
            },
            {
              "internalType": "uint256",
              "name": "totalPlays",
              "type": "uint256"
            },
            {
              "internalType": "bool",
              "name": "isActive",
              "type": "bool"
            }
          ],
          "internalType": "struct MusicRoyalty.Song[]",
          "name": "",
          "type": "tuple[]"
        }
      ],
      "stateMutability": "view",
      "type": "function"
    },
    {
      "inputs": [
        {
          "internalType": "uint256",
          "name": "_songId",
          "type": "uint256"
        }
      ],
      "name": "getSongDetails",
      "outputs": [
        {
          "internalType": "string",
          "name": "title",
          "type": "string"
        },
        {
          "internalType": "string",
          "name": "artist",
          "type": "string"
        },
        {
          "internalType": "string",
          "name": "genre",
          "type": "string"
        },
        {
          "internalType": "uint256",
          "name": "totalPlays",
          "type": "uint256"
        },
        {
          "internalType": "address[]",
          "name": "collaborators",
          "type": "address[]"
        },
        {
          "internalType": "uint256[]",
          "name": "shares",
          "type": "uint256[]"
        }
      ],
      "stateMutability": "view",
      "type": "function"
    },
    {
      "inputs": [],
      "name": "getTotalSongs",
      "outputs": [
        {
          "internalType": "uint256",
          "name": "",
          "type": "uint256"
        }
      ],
      "stateMutability": "view",
      "type": "function"
    },
    {
      "inputs": [
        {
          "internalType": "uint256",
          "name": "",
          "type": "uint256"
        },
        {
          "internalType": "address",
          "name": "",
          "type": "address"
        }
      ],
      "name": "pendingRoyalties",
      "outputs": [
        {
          "internalType": "uint256",
          "name": "",
          "type": "uint256"
        }
      ],
      "stateMutability": "view",
      "type": "function"
    },
    {
      "inputs": [
        {
          "internalType": "uint256",
          "name": "_songId",
          "type": "uint256"
        }
      ],
      "name": "playSong",
      "outputs": [],
      "stateMutability": "payable",
      "type": "function"
    },
    {
      "inputs": [
        {
          "internalType": "string",
          "name": "_title",
          "type": "string"
        },
        {
          "internalType": "string",
          "name": "_artist",
          "type": "string"
        },
        {
          "internalType": "string",
          "name": "_genre",
          "type": "string"
        },
        {
          "internalType": "address[]",
          "name": "_collaborators",
          "type": "address[]"
        },
        {
          "internalType": "uint256[]",
          "name": "_shares",
          "type": "uint256[]"
        }
      ],
      "name": "registerSong",
      "outputs": [],
      "stateMutability": "nonpayable",
      "type": "function"
    },
    {
      "inputs": [],
      "name": "songCounter",
      "outputs": [
        {
          "internalType": "uint256",
          "name": "",
          "type": "uint256"
        }
      ],
      "stateMutability": "view",
      "type": "function"
    },
    {
      "inputs": [
        {
          "internalType": "uint256",
          "name": "",
          "type": "uint256"
        }
      ],
      "name": "songs",
      "outputs": [
        {
          "internalType": "uint256",
          "name": "id",
          "type": "uint256"
        },
        {
          "internalType": "string",
          "name": "title",
          "type": "string"
        },
        {
          "internalType": "string",
          "name": "artist",
          "type": "string"
        },
        {
          "internalType": "string",
          "name": "genre",
          "type": "string"
        },
        {
          "internalType": "uint256",
          "name": "totalPlays",
          "type": "uint256"
        },
        {
          "internalType": "bool",
          "name": "isActive",
          "type": "bool"
        }
      ],
      "stateMutability": "view",
      "type": "function"
    },
    {
      "stateMutability": "payable",
      "type": "receive"
    }
  ],
  "bytecode": "0x608060405234801561001057600080fd5b506126fa806100206000396000f3fe60806040526004361061008a5760003560e01c8063759950e611610059578063759950e61461015757806377822fc2146101735780638c9db2b4146101b557806395ff84b6146101e0578063ebbfc28d1461021d57610091565b806329ef686214610096578063304cff30146100c15780634bd4d59e146101035780635c0c900b1461012e57610091565b3661009157005b600080fd5b3480156100a257600080fd5b506100ab610246565b6040516100b89190611803565b60405180910390f35b3480156100cd57600080fd5b506100e860048036038101906100e39190611865565b6105e0565b6040516100fa969594939291906118fa565b60405180910390f35b34801561010f57600080fd5b506101186107c1565b6040516101259190611970565b60405180910390f35b34801561013a57600080fd5b5061015560048036038101906101509190611865565b6107c7565b005b610171600480360381019061016c9190611865565b610a03565b005b34801561017f57600080fd5b5061019a60048036038101906101959190611865565b610c94565b6040516101ac96959493929190611a69565b60405180910390f35b3480156101c157600080fd5b506101ca611016565b6040516101d79190611970565b60405180910390f35b3480156101ec57600080fd5b5061020760048036038101906102029190611b19565b611020565b6040516102149190611970565b60405180910390f35b34801561022957600080fd5b50610244600480360381019061023f9190611e19565b611045565b005b6060600060025467ffffffffffffffff81111561026657610265611b63565b5b60405190808252806020026020018201604052801561029f57816020015b61028c6112d7565b8152602001906001900390816102845790505b5090506000600190505b60025481116105d85760008082815260200190815260200160002060405180610100016040529081600082015481526020016001820180546102ea90611f4f565b80601f016020809104026020016040519081016040528092919081815260200182805461031690611f4f565b80156103635780601f1061033857610100808354040283529160200191610363565b820191906000526020600020905b81548152906001019060200180831161034657829003601f168201915b5050505050815260200160028201805461037c90611f4f565b80601f01602080910402602001604051908101604052809291908181526020018280546103a890611f4f565b80156103f55780601f106103ca576101008083540402835291602001916103f5565b820191906000526020600020905b8154815290600101906020018083116103d857829003601f168201915b5050505050815260200160038201805461040e90611f4f565b80601f016020809104026020016040519081016040528092919081815260200182805461043a90611f4f565b80156104875780601f1061045c57610100808354040283529160200191610487565b820191906000526020600020905b81548152906001019060200180831161046a57829003601f168201915b505050505081526020016004820180548060200260200160405190810160405280929190818152602001828054801561051557602002820191906000526020600020905b8160009054906101000a900473ffffffffffffffffffffffffffffffffffffffff1673ffffffffffffffffffffffffffffffffffffffff16815260200190600101908083116104cb575b505050505081526020016005820180548060200260200160405190810160405280929190818152602001828054801561056d57602002820191906000526020600020905b815481526020019060010190808311610559575b50505050508152602001600682015481526020016007820160009054906101000a900460ff161515151581525050826001836105a99190611faf565b815181106105ba576105b9611fe3565b5b602002602001018190525080806105d090612012565b9150506102a9565b508091505090565b600060205280600052604060002060009150905080600001549080600101805461060990611f4f565b80601f016020809104026020016040519081016040528092919081815260200182805461063590611f4f565b80156106825780601f1061065757610100808354040283529160200191610682565b820191906000526020600020905b81548152906001019060200180831161066557829003601f168201915b50505050509080600201805461069790611f4f565b80601f01602080910402602001604051908101604052809291908181526020018280546106c390611f4f565b80156107105780601f106106e557610100808354040283529160200191610710565b820191906000526020600020905b8154815290600101906020018083116106f357829003601f168201915b50505050509080600301805461072590611f4f565b80601f016020809104026020016040519081016040528092919081815260200182805461075190611f4f565b801561079e5780601f106107735761010080835404028352916020019161079e565b820191906000526020600020905b81548152906001019060200180831161078157829003601f168201915b5050505050908060060154908060070160009054906101000a900460ff16905086565b60025481565b806000811180156107da57506002548111155b610819576040517f08c379a0000000000000000000000000000000000000000000000000000000008152600401610810906120a6565b60405180910390fd5b60008082815260200190815260200160002060070160009054906101000a900460ff1661087b576040517f08c379a000000000000000000000000000000000000000000000000000000000815260040161087290612112565b60405180910390fd5b60006001600084815260200190815260200160002060003373ffffffffffffffffffffffffffffffffffffffff1673ffffffffffffffffffffffffffffffffffffffff16815260200190815260200160002054905060008111610913576040517f08c379a000000000000000000000000000000000000000000000000000000000815260040161090a9061217e565b60405180910390fd5b60006001600085815260200190815260200160002060003373ffffffffffffffffffffffffffffffffffffffff1673ffffffffffffffffffffffffffffffffffffffff168152602001908152602001600020819055503373ffffffffffffffffffffffffffffffffffffffff166108fc829081150290604051600060405180830381858888f193505050501580156109af573d6000803e3d6000fd5b503373ffffffffffffffffffffffffffffffffffffffff16837e5ff6321fbc462bad97d71220393208f0286cd4482b70c04f592526a75656d3836040516109f69190611970565b60405180910390a3505050565b80600081118015610a1657506002548111155b610a55576040517f08c379a0000000000000000000000000000000000000000000000000000000008152600401610a4c906120a6565b60405180910390fd5b60008082815260200190815260200160002060070160009054906101000a900460ff16610ab7576040517f08c379a0000000000000000000000000000000000000000000000000000000008152600401610aae90612112565b60405180910390fd5b60003411610afa576040517f08c379a0000000000000000000000000000000000000000000000000000000008152600401610af1906121ea565b60405180910390fd5b60008060008481526020019081526020016000209050806006016000815480929190610b2590612012565b919050555060005b8160040180549050811015610c3f576000826004018281548110610b5457610b53611fe3565b5b9060005260206000200160009054906101000a900473ffffffffffffffffffffffffffffffffffffffff1690506000836005018381548110610b9957610b98611fe3565b5b90600052602060002001549050600060648234610bb6919061220a565b610bc0919061227b565b9050806001600089815260200190815260200160002060008573ffffffffffffffffffffffffffffffffffffffff1673ffffffffffffffffffffffffffffffffffffffff1681526020019081526020016000206000828254610c2291906122ac565b925050819055505050508080610c3790612012565b915050610b2d565b503373ffffffffffffffffffffffffffffffffffffffff16837fda981866f885d84a85889b5812a6817aae98524ad6b3e9b5b5c0325a3b0af61034604051610c879190611970565b60405180910390a3505050565b6060806060600060608086600081118015610cb157506002548111155b610cf0576040517f08c379a0000000000000000000000000000000000000000000000000000000008152600401610ce7906120a6565b60405180910390fd5b60008082815260200190815260200160002060070160009054906101000a900460ff16610d52576040517f08c379a0000000000000000000000000000000000000000000000000000000008152600401610d4990612112565b60405180910390fd5b60008060008a8152602001908152602001600020905080600101816002018260030183600601548460040185600501858054610d8d90611f4f565b80601f0160208091040260200160405190810160405280929190818152602001828054610db990611f4f565b8015610e065780601f10610ddb57610100808354040283529160200191610e06565b820191906000526020600020905b815481529060010190602001808311610de957829003601f168201915b50505050509550848054610e1990611f4f565b80601f0160208091040260200160405190810160405280929190818152602001828054610e4590611f4f565b8015610e925780601f10610e6757610100808354040283529160200191610e92565b820191906000526020600020905b815481529060010190602001808311610e7557829003601f168201915b50505050509450838054610ea590611f4f565b80601f0160208091040260200160405190810160405280929190818152602001828054610ed190611f4f565b8015610f1e5780601f10610ef357610100808354040283529160200191610f1e565b820191906000526020600020905b815481529060010190602001808311610f0157829003601f168201915b5050505050935081805480602002602001604051908101604052809291908181526020018280548015610fa657602002820191906000526020600020905b8160009054906101000a900473ffffffffffffffffffffffffffffffffffffffff1673ffffffffffffffffffffffffffffffffffffffff1681526020019060010190808311610f5c575b5050505050915080805480602002602001604051908101604052809291908181526020018280548015610ff857602002820191906000526020600020905b815481526020019060010190808311610fe4575b50505050509050975097509750975097509750505091939550919395565b6000600254905090565b6001602052816000526040600020602052806000526040600020600091509150505481565b80600080600090505b82518110156110925782818151811061106a57611069611fe3565b5b60200260200101518261107d91906122ac565b9150808061108a90612012565b91505061104e565b50606481146110d6576040517f08c379a00000000000000000000000000000000000000000000000000000000081526004016110cd9061232c565b60405180910390fd5b825184511461111a576040517f08c379a000000000000000000000000000000000000000000000000000000000815260040161111190612398565b60405180910390fd5b600084511161115e576040517f08c379a000000000000000000000000000000000000000000000000000000000815260040161115590612404565b60405180910390fd5b6002600081548092919061117190612012565b91905055506040518061010001604052806002548152602001888152602001878152602001868152602001858152602001848152602001600081526020016001151581525060008060025481526020019081526020016000206000820151816000015560208201518160010190816111e991906125d0565b5060408201518160020190816111ff91906125d0565b50606082015181600301908161121591906125d0565b50608082015181600401908051906020019061123292919061131e565b5060a082015181600501908051906020019061124f9291906113a8565b5060c0820151816006015560e08201518160070160006101000a81548160ff0219169083151502179055509050503373ffffffffffffffffffffffffffffffffffffffff166002547fd3575de48727e1fc0ec5865e4c117473a8440bf34ba003eb098d7d039e733c4d896040516112c691906126a2565b60405180910390a350505050505050565b604051806101000160405280600081526020016060815260200160608152602001606081526020016060815260200160608152602001600081526020016000151581525090565b828054828255906000526020600020908101928215611397579160200282015b828111156113965782518260006101000a81548173ffffffffffffffffffffffffffffffffffffffff021916908373ffffffffffffffffffffffffffffffffffffffff1602179055509160200191906001019061133e565b5b5090506113a491906113f5565b5090565b8280548282559060005260206000209081019282156113e4579160200282015b828111156113e35782518255916020019190600101906113c8565b5b5090506113f191906113f5565b5090565b5b8082111561140e5760008160009055506001016113f6565b5090565b600081519050919050565b600082825260208201905092915050565b6000819050602082019050919050565b6000819050919050565b6114518161143e565b82525050565b600081519050919050565b600082825260208201905092915050565b60005b83811015611491578082015181840152602081019050611476565b60008484015250505050565b6000601f19601f8301169050919050565b60006114b982611457565b6114c38185611462565b93506114d3818560208601611473565b6114dc8161149d565b840191505092915050565b600081519050919050565b600082825260208201905092915050565b6000819050602082019050919050565b600073ffffffffffffffffffffffffffffffffffffffff82169050919050565b600061153e82611513565b9050919050565b61154e81611533565b82525050565b60006115608383611545565b60208301905092915050565b6000602082019050919050565b6000611584826114e7565b61158e81856114f2565b935061159983611503565b8060005b838110156115ca5781516115b18882611554565b97506115bc8361156c565b92505060018101905061159d565b5085935050505092915050565b600081519050919050565b600082825260208201905092915050565b6000819050602082019050919050565b600061160f8383611448565b60208301905092915050565b6000602082019050919050565b6000611633826115d7565b61163d81856115e2565b9350611648836115f3565b8060005b838110156116795781516116608882611603565b975061166b8361161b565b92505060018101905061164c565b5085935050505092915050565b60008115159050919050565b61169b81611686565b82525050565b6000610100830160008301516116ba6000860182611448565b50602083015184820360208601526116d282826114ae565b915050604083015184820360408601526116ec82826114ae565b9150506060830151848203606086015261170682826114ae565b915050608083015184820360808601526117208282611579565b91505060a083015184820360a086015261173a8282611628565b91505060c083015161174f60c0860182611448565b5060e083015161176260e0860182611692565b508091505092915050565b600061177983836116a1565b905092915050565b6000602082019050919050565b600061179982611412565b6117a3818561141d565b9350836020820285016117b58561142e565b8060005b858110156117f157848403895281516117d2858261176d565b94506117dd83611781565b925060208a019950506001810190506117b9565b50829750879550505050505092915050565b6000602082019050818103600083015261181d818461178e565b905092915050565b6000604051905090565b600080fd5b600080fd5b6118428161143e565b811461184d57600080fd5b50565b60008135905061185f81611839565b92915050565b60006020828403121561187b5761187a61182f565b5b600061188984828501611850565b91505092915050565b61189b8161143e565b82525050565b600082825260208201905092915050565b60006118bd82611457565b6118c781856118a1565b93506118d7818560208601611473565b6118e08161149d565b840191505092915050565b6118f481611686565b82525050565b600060c08201905061190f6000830189611892565b818103602083015261192181886118b2565b9050818103604083015261193581876118b2565b9050818103606083015261194981866118b2565b90506119586080830185611892565b61196560a08301846118eb565b979650505050505050565b60006020820190506119856000830184611892565b92915050565b600082825260208201905092915050565b60006119a7826114e7565b6119b1818561198b565b93506119bc83611503565b8060005b838110156119ed5781516119d48882611554565b97506119df8361156c565b9250506001810190506119c0565b5085935050505092915050565b600082825260208201905092915050565b6000611a16826115d7565b611a2081856119fa565b9350611a2b836115f3565b8060005b83811015611a5c578151611a438882611603565b9750611a4e8361161b565b925050600181019050611a2f565b5085935050505092915050565b600060c0820190508181036000830152611a8381896118b2565b90508181036020830152611a9781886118b2565b90508181036040830152611aab81876118b2565b9050611aba6060830186611892565b8181036080830152611acc818561199c565b905081810360a0830152611ae08184611a0b565b9050979650505050505050565b611af681611533565b8114611b0157600080fd5b50565b600081359050611b1381611aed565b92915050565b60008060408385031215611b3057611b2f61182f565b5b6000611b3e85828601611850565b9250506020611b4f85828601611b04565b9150509250929050565b600080fd5b600080fd5b7f4e487b7100000000000000000000000000000000000000000000000000000000600052604160045260246000fd5b611b9b8261149d565b810181811067ffffffffffffffff82111715611bba57611bb9611b63565b5b80604052505050565b6000611bcd611825565b9050611bd98282611b92565b919050565b600067ffffffffffffffff821115611bf957611bf8611b63565b5b611c028261149d565b9050602081019050919050565b82818337600083830152505050565b6000611c31611c2c84611bde565b611bc3565b905082815260208101848484011115611c4d57611c4c611b5e565b5b611c58848285611c0f565b509392505050565b600082601f830112611c7557611c74611b59565b5b8135611c85848260208601611c1e565b91505092915050565b600067ffffffffffffffff821115611ca957611ca8611b63565b5b602082029050602081019050919050565b600080fd5b6000611cd2611ccd84611c8e565b611bc3565b90508083825260208201905060208402830185811115611cf557611cf4611cba565b5b835b81811015611d1e5780611d0a8882611b04565b845260208401935050602081019050611cf7565b5050509392505050565b600082601f830112611d3d57611d3c611b59565b5b8135611d4d848260208601611cbf565b91505092915050565b600067ffffffffffffffff821115611d7157611d70611b63565b5b602082029050602081019050919050565b6000611d95611d9084611d56565b611bc3565b90508083825260208201905060208402830185811115611db857611db7611cba565b5b835b81811015611de15780611dcd8882611850565b845260208401935050602081019050611dba565b5050509392505050565b600082601f830112611e0057611dff611b59565b5b8135611e10848260208601611d82565b91505092915050565b600080600080600060a08688031215611e3557611e3461182f565b5b600086013567ffffffffffffffff811115611e5357611e52611834565b5b611e5f88828901611c60565b955050602086013567ffffffffffffffff811115611e8057611e7f611834565b5b611e8c88828901611c60565b945050604086013567ffffffffffffffff811115611ead57611eac611834565b5b611eb988828901611c60565b935050606086013567ffffffffffffffff811115611eda57611ed9611834565b5b611ee688828901611d28565b925050608086013567ffffffffffffffff811115611f0757611f06611834565b5b611f1388828901611deb565b9150509295509295909350565b7f4e487b7100000000000000000000000000000000000000000000000000000000600052602260045260246000fd5b60006002820490506001821680611f6757607f821691505b602082108103611f7a57611f79611f20565b5b50919050565b7f4e487b7100000000000000000000000000000000000000000000000000000000600052601160045260246000fd5b6000611fba8261143e565b9150611fc58361143e565b9250828203905081811115611fdd57611fdc611f80565b5b92915050565b7f4e487b7100000000000000000000000000000000000000000000000000000000600052603260045260246000fd5b600061201d8261143e565b91507fffffffffffffffffffffffffffffffffffffffffffffffffffffffffffffffff820361204f5761204e611f80565b5b600182019050919050565b7f536f6e6720646f6573206e6f7420657869737400000000000000000000000000600082015250565b60006120906013836118a1565b915061209b8261205a565b602082019050919050565b600060208201905081810360008301526120bf81612083565b9050919050565b7f536f6e67206973206e6f74206163746976650000000000000000000000000000600082015250565b60006120fc6012836118a1565b9150612107826120c6565b602082019050919050565b6000602082019050818103600083015261212b816120ef565b9050919050565b7f4e6f2070656e64696e6720726f79616c74790000000000000000000000000000600082015250565b60006121686012836118a1565b915061217382612132565b602082019050919050565b600060208201905081810360008301526121978161215b565b9050919050565b7f4d7573742073656e64207061796d656e7420746f20706c617920736f6e670000600082015250565b60006121d4601e836118a1565b91506121df8261219e565b602082019050919050565b60006020820190508181036000830152612203816121c7565b9050919050565b60006122158261143e565b91506122208361143e565b925082820261222e8161143e565b9150828204841483151761224557612244611f80565b5b5092915050565b7f4e487b7100000000000000000000000000000000000000000000000000000000600052601260045260246000fd5b60006122868261143e565b91506122918361143e565b9250826122a1576122a061224c565b5b828204905092915050565b60006122b78261143e565b91506122c28361143e565b92508282019050808211156122da576122d9611f80565b5b92915050565b7f546f74616c20736861726573206d757374206265203130302500000000000000600082015250565b60006123166019836118a1565b9150612321826122e0565b602082019050919050565b6000602082019050818103600083015261234581612309565b9050919050565b7f4172726179206c656e677468206d69736d617463680000000000000000000000600082015250565b60006123826015836118a1565b915061238d8261234c565b602082019050919050565b600060208201905081810360008301526123b181612375565b9050919050565b7f4174206c65617374206f6e6520636f6c6c61626f7261746f7200000000000000600082015250565b60006123ee6019836118a1565b91506123f9826123b8565b602082019050919050565b6000602082019050818103600083015261241d816123e1565b9050919050565b60008190508160005260206000209050919050565b60006020601f8301049050919050565b600082821b905092915050565b6000600883026124867fffffffffffffffffffffffffffffffffffffffffffffffffffffffffffffffff82612449565b6124908683612449565b95508019841693508086168417925050509392505050565b6000819050919050565b60006124cd6124c86124c38461143e565b6124a8565b61143e565b9050919050565b6000819050919050565b6124e7836124b2565b6124fb6124f3826124d4565b848454612456565b825550505050565b600090565b612510612503565b61251b8184846124de565b505050565b5b8181101561253f57612534600082612508565b600181019050612521565b5050565b601f8211156125845761255581612424565b61255e84612439565b8101602085101561256d578190505b61258161257985612439565b830182612520565b50505b505050565b600082821c905092915050565b60006125a760001984600802612589565b1980831691505092915050565b60006125c08383612596565b9150826002028217905092915050565b6125d982611457565b67ffffffffffffffff8111156125f2576125f1611b63565b5b6125fc8254611f4f565b612607828285612543565b600060209050601f83116001811461263a5760008415612628578287015190505b61263285826125b4565b86555061269a565b601f19841661264886612424565b60005b828110156126705784890151825560018201915060208501945060208101905061264b565b8683101561268d5784890151612689601f891682612596565b8355505b6001600288020188555050505b505050505050565b600060208201905081810360008301526126bc81846118b2565b90509291505056fea26469706673582212200d09bc79a58605b6eeaa5f5d355a4f5387300fe1e2aac41ce09644e4f7cce6ea64736f6c63430008130033",
  "linkReferences": {},
  "deployedLinkReferences": {}
}